:020000000A28CC
:10000800FE00030EC0000A08C10083280B28C52083
:10001800D400C620D500CB01CC01CD01CE01CF0143
:10002800D001D101D201D30183011A28B8208B173E
:1000380085181F2820283C285508C4005408C300E8
:100048000310C40CC30C4308D4004408D500541D45
:100058002E282F2833280030D4004030D5005230C5
:10006800C4002930C300C30B3728C40B37283C28E9
:100078004F08C3005008C4005108C5005208C60004
:100088004B08C3024C08031C4C0F4B284C28C402D5
:100098004D08031C4D0F51285228C5024E08031C59
:1000A8004E0F57285828C6025408C7005508C800DC
:1000B800C901CA0146084A02031D6C2845084902BD
:1000C800031D6C2844084802031D6C284308470296
:1000D80003186F2870281C285208CE005108CD003C
:1000E8005008CC004F08CB00051C7B287C287F28B3
:1000F800051005151C28051405111C280A288B1E37
:10010800862887289C280B1D8A288B289C280B1159
:10011800833081000130CF07003003180130D00749
:10012800003003180130D107003003180130D2071E
:1001380041088A00400E8300FE0E7E0E09000E085C
:10014800C03910388E00833081008330C2004208E5
:10015800D6000B118B160800870102308600880133
:10016800023089008E130800B020BD20C220A320D1
:10017800080030309000A601BF0108001630B0001A
:06018800080000340234FF
:08400000FF3FFF3FFF3FFF3FC0
:02400E00E63F8B
:00000001FF
